{
  "_format": "hh-sol-artifact-1",
  "contractName": "MonkeyNFT",
  "sourceName": "contracts/MonkeyNFT.sol",
  "abi": [
    {
      "inputs": [],
      "stateMutability": "nonpayable",
      "type": "constructor"
    },
    {
      "anonymous": false,
      "inputs": [
        {
          "indexed": true,
          "internalType": "address",
          "name": "owner",
          "type": "address"
        },
        {
          "indexed": true,
          "internalType": "address",
          "name": "approved",
          "type": "address"
        },
        {
          "indexed": true,
          "internalType": "uint256",
          "name": "tokenId",
          "type": "uint256"
        }
      ],
      "name": "Approval",
      "type": "event"
    },
    {
      "anonymous": false,
      "inputs": [
        {
          "indexed": true,
          "internalType": "address",
          "name": "owner",
          "type": "address"
        },
        {
          "indexed": true,
          "internalType": "address",
          "name": "operator",
          "type": "address"
        },
        {
          "indexed": false,
          "internalType": "bool",
          "name": "approved",
          "type": "bool"
        }
      ],
      "name": "ApprovalForAll",
      "type": "event"
    },
    {
      "anonymous": false,
      "inputs": [
        {
          "indexed": false,
          "internalType": "uint256",
          "name": "_fromTokenId",
          "type": "uint256"
        },
        {
          "indexed": false,
          "internalType": "uint256",
          "name": "_toTokenId",
          "type": "uint256"
        }
      ],
      "name": "BatchMetadataUpdate",
      "type": "event"
    },
    {
      "anonymous": false,
      "inputs": [
        {
          "indexed": true,
          "internalType": "uint256",
          "name": "tokenId",
          "type": "uint256"
        },
        {
          "indexed": true,
          "internalType": "uint256",
          "name": "listPrice",
          "type": "uint256"
        }
      ],
      "name": "Listed",
      "type": "event"
    },
    {
      "anonymous": false,
      "inputs": [
        {
          "indexed": false,
          "internalType": "uint256",
          "name": "_tokenId",
          "type": "uint256"
        }
      ],
      "name": "MetadataUpdate",
      "type": "event"
    },
    {
      "anonymous": false,
      "inputs": [
        {
          "indexed": true,
          "internalType": "address",
          "name": "buyer",
          "type": "address"
        },
        {
          "indexed": false,
          "internalType": "uint256",
          "name": "tokenId",
          "type": "uint256"
        }
      ],
      "name": "MintedNFT",
      "type": "event"
    },
    {
      "anonymous": false,
      "inputs": [
        {
          "indexed": true,
          "internalType": "address",
          "name": "previousOwner",
          "type": "address"
        },
        {
          "indexed": true,
          "internalType": "address",
          "name": "newOwner",
          "type": "address"
        }
      ],
      "name": "OwnershipTransferred",
      "type": "event"
    },
    {
      "anonymous": false,
      "inputs": [
        {
          "indexed": false,
          "internalType": "address",
          "name": "account",
          "type": "address"
        }
      ],
      "name": "Paused",
      "type": "event"
    },
    {
      "anonymous": false,
      "inputs": [
        {
          "indexed": true,
          "internalType": "uint256",
          "name": "tokenId",
          "type": "uint256"
        },
        {
          "indexed": true,
          "internalType": "address",
          "name": "seller",
          "type": "address"
        }
      ],
      "name": "Sold",
      "type": "event"
    },
    {
      "anonymous": false,
      "inputs": [
        {
          "indexed": true,
          "internalType": "address",
          "name": "from",
          "type": "address"
        },
        {
          "indexed": true,
          "internalType": "address",
          "name": "to",
          "type": "address"
        },
        {
          "indexed": true,
          "internalType": "uint256",
          "name": "tokenId",
          "type": "uint256"
        }
      ],
      "name": "Transfer",
      "type": "event"
    },
    {
      "anonymous": false,
      "inputs": [
        {
          "indexed": false,
          "internalType": "address",
          "name": "account",
          "type": "address"
        }
      ],
      "name": "Unpaused",
      "type": "event"
    },
    {
      "anonymous": false,
      "inputs": [
        {
          "indexed": true,
          "internalType": "address",
          "name": "to",
          "type": "address"
        },
        {
          "indexed": false,
          "internalType": "uint256",
          "name": "amount",
          "type": "uint256"
        }
      ],
      "name": "Withdraw",
      "type": "event"
    },
    {
      "inputs": [],
      "name": "LIST_PRICE",
      "outputs": [
        {
          "internalType": "uint256",
          "name": "",
          "type": "uint256"
        }
      ],
      "stateMutability": "view",
      "type": "function"
    },
    {
      "inputs": [],
      "name": "MAX_SUPPLY",
      "outputs": [
        {
          "internalType": "uint256",
          "name": "",
          "type": "uint256"
        }
      ],
      "stateMutability": "view",
      "type": "function"
    },
    {
      "inputs": [],
      "name": "MAX_WHITELIST_ADDRESS",
      "outputs": [
        {
          "internalType": "uint256",
          "name": "",
          "type": "uint256"
        }
      ],
      "stateMutability": "view",
      "type": "function"
    },
    {
      "inputs": [],
      "name": "PUBLIC_MINT_PRICE",
      "outputs": [
        {
          "internalType": "uint256",
          "name": "",
          "type": "uint256"
        }
      ],
      "stateMutability": "view",
      "type": "function"
    },
    {
      "inputs": [],
      "name": "TOTAL_WHITELIST_ADDRESS",
      "outputs": [
        {
          "internalType": "uint256",
          "name": "",
          "type": "uint256"
        }
      ],
      "stateMutability": "view",
      "type": "function"
    },
    {
      "inputs": [],
      "name": "WHITELIST_MINT_PRICE",
      "outputs": [
        {
          "internalType": "uint256",
          "name": "",
          "type": "uint256"
        }
      ],
      "stateMutability": "view",
      "type": "function"
    },
    {
      "inputs": [
        {
          "internalType": "uint256",
          "name": "",
          "type": "uint256"
        }
      ],
      "name": "allListedNFTs",
      "outputs": [
        {
          "internalType": "uint256",
          "name": "tokenId",
          "type": "uint256"
        },
        {
          "internalType": "uint256",
          "name": "listPrice",
          "type": "uint256"
        },
        {
          "internalType": "address payable",
          "name": "seller",
          "type": "address"
        },
        {
          "internalType": "address payable",
          "name": "owner",
          "type": "address"
        },
        {
          "internalType": "bool",
          "name": "isListed",
          "type": "bool"
        }
      ],
      "stateMutability": "view",
      "type": "function"
    },
    {
      "inputs": [
        {
          "internalType": "address",
          "name": "to",
          "type": "address"
        },
        {
          "internalType": "uint256",
          "name": "tokenId",
          "type": "uint256"
        }
      ],
      "name": "approve",
      "outputs": [],
      "stateMutability": "nonpayable",
      "type": "function"
    },
    {
      "inputs": [
        {
          "internalType": "address",
          "name": "owner",
          "type": "address"
        }
      ],
      "name": "balanceOf",
      "outputs": [
        {
          "internalType": "uint256",
          "name": "",
          "type": "uint256"
        }
      ],
      "stateMutability": "view",
      "type": "function"
    },
    {
      "inputs": [],
      "name": "baseExtension",
      "outputs": [
        {
          "internalType": "string",
          "name": "",
          "type": "string"
        }
      ],
      "stateMutability": "view",
      "type": "function"
    },
    {
      "inputs": [
        {
          "internalType": "uint256",
          "name": "id",
          "type": "uint256"
        }
      ],
      "name": "buyNFT",
      "outputs": [],
      "stateMutability": "payable",
      "type": "function"
    },
    {
      "inputs": [
        {
          "internalType": "uint256",
          "name": "tokenId",
          "type": "uint256"
        }
      ],
      "name": "getApproved",
      "outputs": [
        {
          "internalType": "address",
          "name": "",
          "type": "address"
        }
      ],
      "stateMutability": "view",
      "type": "function"
    },
    {
      "inputs": [],
      "name": "getListedNFTLength",
      "outputs": [
        {
          "internalType": "uint256",
          "name": "",
          "type": "uint256"
        }
      ],
      "stateMutability": "view",
      "type": "function"
    },
    {
      "inputs": [],
      "name": "getMyNFTs",
      "outputs": [
        {
          "components": [
            {
              "internalType": "uint256",
              "name": "tokenId",
              "type": "uint256"
            },
            {
              "internalType": "uint256",
              "name": "listPrice",
              "type": "uint256"
            },
            {
              "internalType": "address payable",
              "name": "seller",
              "type": "address"
            },
            {
              "internalType": "address payable",
              "name": "owner",
              "type": "address"
            },
            {
              "internalType": "bool",
              "name": "isListed",
              "type": "bool"
            }
          ],
          "internalType": "struct MonkeyNFT.NFTdetails[]",
          "name": "",
          "type": "tuple[]"
        }
      ],
      "stateMutability": "view",
      "type": "function"
    },
    {
      "inputs": [],
      "name": "getWhiteList",
      "outputs": [],
      "stateMutability": "nonpayable",
      "type": "function"
    },
    {
      "inputs": [
        {
          "internalType": "address",
          "name": "owner",
          "type": "address"
        },
        {
          "internalType": "address",
          "name": "operator",
          "type": "address"
        }
      ],
      "name": "isApprovedForAll",
      "outputs": [
        {
          "internalType": "bool",
          "name": "",
          "type": "bool"
        }
      ],
      "stateMutability": "view",
      "type": "function"
    },
    {
      "inputs": [
        {
          "internalType": "uint256",
          "name": "tokenId",
          "type": "uint256"
        },
        {
          "internalType": "uint256",
          "name": "_listPrice",
          "type": "uint256"
        }
      ],
      "name": "listNFT",
      "outputs": [],
      "stateMutability": "payable",
      "type": "function"
    },
    {
      "inputs": [
        {
          "internalType": "uint256",
          "name": "",
          "type": "uint256"
        }
      ],
      "name": "mintedNFTs",
      "outputs": [
        {
          "internalType": "uint256",
          "name": "tokenId",
          "type": "uint256"
        },
        {
          "internalType": "uint256",
          "name": "listPrice",
          "type": "uint256"
        },
        {
          "internalType": "address payable",
          "name": "seller",
          "type": "address"
        },
        {
          "internalType": "address payable",
          "name": "owner",
          "type": "address"
        },
        {
          "internalType": "bool",
          "name": "isListed",
          "type": "bool"
        }
      ],
      "stateMutability": "view",
      "type": "function"
    },
    {
      "inputs": [
        {
          "internalType": "address",
          "name": "",
          "type": "address"
        }
      ],
      "name": "mintedWallet",
      "outputs": [
        {
          "internalType": "uint256",
          "name": "",
          "type": "uint256"
        }
      ],
      "stateMutability": "view",
      "type": "function"
    },
    {
      "inputs": [],
      "name": "name",
      "outputs": [
        {
          "internalType": "string",
          "name": "",
          "type": "string"
        }
      ],
      "stateMutability": "view",
      "type": "function"
    },
    {
      "inputs": [],
      "name": "owner",
      "outputs": [
        {
          "internalType": "address",
          "name": "",
          "type": "address"
        }
      ],
      "stateMutability": "view",
      "type": "function"
    },
    {
      "inputs": [
        {
          "internalType": "uint256",
          "name": "tokenId",
          "type": "uint256"
        }
      ],
      "name": "ownerOf",
      "outputs": [
        {
          "internalType": "address",
          "name": "",
          "type": "address"
        }
      ],
      "stateMutability": "view",
      "type": "function"
    },
    {
      "inputs": [],
      "name": "pause",
      "outputs": [],
      "stateMutability": "nonpayable",
      "type": "function"
    },
    {
      "inputs": [],
      "name": "paused",
      "outputs": [
        {
          "internalType": "bool",
          "name": "",
          "type": "bool"
        }
      ],
      "stateMutability": "view",
      "type": "function"
    },
    {
      "inputs": [
        {
          "internalType": "uint256",
          "name": "quantity",
          "type": "uint256"
        }
      ],
      "name": "publicMint",
      "outputs": [],
      "stateMutability": "payable",
      "type": "function"
    },
    {
      "inputs": [],
      "name": "renounceOwnership",
      "outputs": [],
      "stateMutability": "nonpayable",
      "type": "function"
    },
    {
      "inputs": [
        {
          "internalType": "address",
          "name": "from",
          "type": "address"
        },
        {
          "internalType": "address",
          "name": "to",
          "type": "address"
        },
        {
          "internalType": "uint256",
          "name": "tokenId",
          "type": "uint256"
        }
      ],
      "name": "safeTransferFrom",
      "outputs": [],
      "stateMutability": "nonpayable",
      "type": "function"
    },
    {
      "inputs": [
        {
          "internalType": "address",
          "name": "from",
          "type": "address"
        },
        {
          "internalType": "address",
          "name": "to",
          "type": "address"
        },
        {
          "internalType": "uint256",
          "name": "tokenId",
          "type": "uint256"
        },
        {
          "internalType": "bytes",
          "name": "data",
          "type": "bytes"
        }
      ],
      "name": "safeTransferFrom",
      "outputs": [],
      "stateMutability": "nonpayable",
      "type": "function"
    },
    {
      "inputs": [
        {
          "internalType": "address",
          "name": "operator",
          "type": "address"
        },
        {
          "internalType": "bool",
          "name": "approved",
          "type": "bool"
        }
      ],
      "name": "setApprovalForAll",
      "outputs": [],
      "stateMutability": "nonpayable",
      "type": "function"
    },
    {
      "inputs": [
        {
          "internalType": "bytes4",
          "name": "interfaceId",
          "type": "bytes4"
        }
      ],
      "name": "supportsInterface",
      "outputs": [
        {
          "internalType": "bool",
          "name": "",
          "type": "bool"
        }
      ],
      "stateMutability": "view",
      "type": "function"
    },
    {
      "inputs": [],
      "name": "symbol",
      "outputs": [
        {
          "internalType": "string",
          "name": "",
          "type": "string"
        }
      ],
      "stateMutability": "view",
      "type": "function"
    },
    {
      "inputs": [
        {
          "internalType": "uint256",
          "name": "index",
          "type": "uint256"
        }
      ],
      "name": "tokenByIndex",
      "outputs": [
        {
          "internalType": "uint256",
          "name": "",
          "type": "uint256"
        }
      ],
      "stateMutability": "view",
      "type": "function"
    },
    {
      "inputs": [
        {
          "internalType": "address",
          "name": "owner",
          "type": "address"
        },
        {
          "internalType": "uint256",
          "name": "index",
          "type": "uint256"
        }
      ],
      "name": "tokenOfOwnerByIndex",
      "outputs": [
        {
          "internalType": "uint256",
          "name": "",
          "type": "uint256"
        }
      ],
      "stateMutability": "view",
      "type": "function"
    },
    {
      "inputs": [
        {
          "internalType": "uint256",
          "name": "tokenId",
          "type": "uint256"
        }
      ],
      "name": "tokenURI",
      "outputs": [
        {
          "internalType": "string",
          "name": "",
          "type": "string"
        }
      ],
      "stateMutability": "view",
      "type": "function"
    },
    {
      "inputs": [],
      "name": "totalSupply",
      "outputs": [
        {
          "internalType": "uint256",
          "name": "",
          "type": "uint256"
        }
      ],
      "stateMutability": "view",
      "type": "function"
    },
    {
      "inputs": [
        {
          "internalType": "address",
          "name": "from",
          "type": "address"
        },
        {
          "internalType": "address",
          "name": "to",
          "type": "address"
        },
        {
          "internalType": "uint256",
          "name": "tokenId",
          "type": "uint256"
        }
      ],
      "name": "transferFrom",
      "outputs": [],
      "stateMutability": "nonpayable",
      "type": "function"
    },
    {
      "inputs": [
        {
          "internalType": "address",
          "name": "newOwner",
          "type": "address"
        }
      ],
      "name": "transferOwnership",
      "outputs": [],
      "stateMutability": "nonpayable",
      "type": "function"
    },
    {
      "inputs": [],
      "name": "unpause",
      "outputs": [],
      "stateMutability": "nonpayable",
      "type": "function"
    },
    {
      "inputs": [
        {
          "internalType": "uint256",
          "name": "tokenId",
          "type": "uint256"
        },
        {
          "internalType": "uint256",
          "name": "_listPrice",
          "type": "uint256"
        }
      ],
      "name": "updateListPrice",
      "outputs": [],
      "stateMutability": "nonpayable",
      "type": "function"
    },
    {
      "inputs": [
        {
          "internalType": "address",
          "name": "",
          "type": "address"
        }
      ],
      "name": "whiteListAddress",
      "outputs": [
        {
          "internalType": "bool",
          "name": "",
          "type": "bool"
        }
      ],
      "stateMutability": "view",
      "type": "function"
    },
    {
      "inputs": [
        {
          "internalType": "uint256",
          "name": "quantity",
          "type": "uint256"
        }
      ],
      "name": "whiteListMint",
      "outputs": [],
      "stateMutability": "payable",
      "type": "function"
    },
    {
      "inputs": [
        {
          "internalType": "address",
          "name": "to",
          "type": "address"
        }
      ],
      "name": "withdrawFunds",
      "outputs": [],
      "stateMutability": "nonpayable",
      "type": "function"
    }
  ],
  "bytecode": "0x60806040526107d0600d55662386f26fc10000600e5566038d7ea4c68000600f5561012c601055662386f26fc100006011556040518060400160405280600581526020017f2e6a736f6e00000000000000000000000000000000000000000000000000000081525060139081620000779190620004a1565b503480156200008557600080fd5b506040518060400160405280600681526020017f4d6f6e6b657900000000000000000000000000000000000000000000000000008152506040518060400160405280600381526020017f4d4b5900000000000000000000000000000000000000000000000000000000008152508160009081620001039190620004a1565b508060019081620001159190620004a1565b5050506000600b60006101000a81548160ff02191690831515021790555062000153620001476200015960201b60201c565b6200016160201b60201c565b62000588565b600033905090565b6000600b60019054906101000a900473ffffffffffffffffffffffffffffffffffffffff16905081600b60016101000a81548173ffffffffffffffffffffffffffffffffffffffff021916908373ffffffffffffffffffffffffffffffffffffffff1602179055508173ffffffffffffffffffffffffffffffffffffffff168173ffffffffffffffffffffffffffffffffffffffff167f8be0079c531659141344cd1fd0a4f28419497f9722a3daafe3b4186f6b6457e060405160405180910390a35050565b600081519050919050565b7f4e487b7100000000000000000000000000000000000000000000000000000000600052604160045260246000fd5b7f4e487b7100000000000000000000000000000000000000000000000000000000600052602260045260246000fd5b60006002820490506001821680620002a957607f821691505b602082108103620002bf57620002be62000261565b5b50919050565b60008190508160005260206000209050919050565b60006020601f8301049050919050565b600082821b905092915050565b600060088302620003297fffffffffffffffffffffffffffffffffffffffffffffffffffffffffffffffff82620002ea565b620003358683620002ea565b95508019841693508086168417925050509392505050565b6000819050919050565b6000819050919050565b6000620003826200037c62000376846200034d565b62000357565b6200034d565b9050919050565b6000819050919050565b6200039e8362000361565b620003b6620003ad8262000389565b848454620002f7565b825550505050565b600090565b620003cd620003be565b620003da81848462000393565b505050565b5b818110156200040257620003f6600082620003c3565b600181019050620003e0565b5050565b601f82111562000451576200041b81620002c5565b6200042684620002da565b8101602085101562000436578190505b6200044e6200044585620002da565b830182620003df565b50505b505050565b600082821c905092915050565b6000620004766000198460080262000456565b1980831691505092915050565b600062000491838362000463565b9150826002028217905092915050565b620004ac8262000227565b67ffffffffffffffff811115620004c857620004c762000232565b5b620004d4825462000290565b620004e182828562000406565b600060209050601f83116001811462000519576000841562000504578287015190505b62000510858262000483565b86555062000580565b601f1984166200052986620002c5565b60005b8281101562000553578489015182556001820191506020850194506020810190506200052c565b868310156200057357848901516200056f601f89168262000463565b8355505b6001600288020188555050505b505050505050565b6158bf80620005986000396000f3fe6080604052600436106102515760003560e01c80636352211e11610139578063a22cb465116100b6578063c87b56dd1161007a578063c87b56dd14610872578063cdfe3f30146108af578063cf52a7b2146108da578063dd53545114610917578063e985e9c514610942578063f2fde38b1461097f57610251565b8063a22cb4651461079f578063aca9938d146107c8578063b2ec653b146107f3578063b88d4fde1461081e578063c66828621461084757610251565b8063717babd2116100fd578063717babd2146106eb5780638456cb59146107165780638da5cb5b1461072d57806394383f141461075857806395d89b411461077457610251565b80636352211e1461060657806368742da6146106435780636bde26271461066c57806370a0823114610697578063715018a6146106d457610251565b8063236bc5f0116101d25780633f4ba83a116101965780633f4ba83a1461051757806342842e0e1461052e5780634f6ccce71461055757806351ed8288146105945780635c975abb146105b0578063629cb2e4146105db57610251565b8063236bc5f01461042d57806323b872dd1461046a5780632db11544146104935780632f745c59146104af57806332cb6b0c146104ec57610251565b806309a9d76c1161021957806309a9d76c14610340578063144dcbbc1461035757806318160ddd146103805780631e1566b2146103ab5780631ee9f1d5146103ec57610251565b806301ffc9a71461025657806302e001ef1461029357806306fdde03146102af578063081812fc146102da578063095ea7b314610317575b600080fd5b34801561026257600080fd5b5061027d60048036038101906102789190613f1a565b6109a8565b60405161028a9190613f62565b60405180910390f35b6102ad60048036038101906102a89190613fb3565b6109ba565b005b3480156102bb57600080fd5b506102c4610d97565b6040516102d19190614070565b60405180910390f35b3480156102e657600080fd5b5061030160048036038101906102fc9190613fb3565b610e29565b60405161030e91906140d3565b60405180910390f35b34801561032357600080fd5b5061033e6004803603810190610339919061411a565b610e6f565b005b34801561034c57600080fd5b50610355610f86565b005b34801561036357600080fd5b5061037e6004803603810190610379919061415a565b6110cb565b005b34801561038c57600080fd5b506103956111e6565b6040516103a291906141a9565b60405180910390f35b3480156103b757600080fd5b506103d260048036038101906103cd9190613fb3565b6111f3565b6040516103e39594939291906141e5565b60405180910390f35b3480156103f857600080fd5b50610413600480360381019061040e9190613fb3565b611286565b6040516104249594939291906141e5565b60405180910390f35b34801561043957600080fd5b50610454600480360381019061044f9190614238565b611309565b60405161046191906141a9565b60405180910390f35b34801561047657600080fd5b50610491600480360381019061048c9190614265565b611321565b005b6104ad60048036038101906104a89190613fb3565b611381565b005b3480156104bb57600080fd5b506104d660048036038101906104d1919061411a565b6116d2565b6040516104e391906141a9565b60405180910390f35b3480156104f857600080fd5b50610501611777565b60405161050e91906141a9565b60405180910390f35b34801561052357600080fd5b5061052c61177d565b005b34801561053a57600080fd5b5061055560048036038101906105509190614265565b61178f565b005b34801561056357600080fd5b5061057e60048036038101906105799190613fb3565b6117af565b60405161058b91906141a9565b60405180910390f35b6105ae60048036038101906105a99190613fb3565b611820565b005b3480156105bc57600080fd5b506105c5611b92565b6040516105d29190613f62565b60405180910390f35b3480156105e757600080fd5b506105f0611ba9565b6040516105fd91906143fc565b60405180910390f35b34801561061257600080fd5b5061062d60048036038101906106289190613fb3565b611dad565b60405161063a91906140d3565b60405180910390f35b34801561064f57600080fd5b5061066a60048036038101906106659190614238565b611e33565b005b34801561067857600080fd5b50610681611ed9565b60405161068e91906141a9565b60405180910390f35b3480156106a357600080fd5b506106be60048036038101906106b99190614238565b611edf565b6040516106cb91906141a9565b60405180910390f35b3480156106e057600080fd5b506106e9611f96565b005b3480156106f757600080fd5b50610700611faa565b60405161070d91906141a9565b60405180910390f35b34801561072257600080fd5b5061072b611fb0565b005b34801561073957600080fd5b50610742611fc2565b60405161074f91906140d3565b60405180910390f35b610772600480360381019061076d919061415a565b611fec565b005b34801561078057600080fd5b5061078961229a565b6040516107969190614070565b60405180910390f35b3480156107ab57600080fd5b506107c660048036038101906107c1919061444a565b61232c565b005b3480156107d457600080fd5b506107dd612342565b6040516107ea91906141a9565b60405180910390f35b3480156107ff57600080fd5b50610808612348565b60405161081591906141a9565b60405180910390f35b34801561082a57600080fd5b50610845600480360381019061084091906145bf565b61234e565b005b34801561085357600080fd5b5061085c6123b0565b6040516108699190614070565b60405180910390f35b34801561087e57600080fd5b5061089960048036038101906108949190613fb3565b61243e565b6040516108a69190614070565b60405180910390f35b3480156108bb57600080fd5b506108c46124ba565b6040516108d191906141a9565b60405180910390f35b3480156108e657600080fd5b5061090160048036038101906108fc9190614238565b6124c7565b60405161090e9190613f62565b60405180910390f35b34801561092357600080fd5b5061092c6124e7565b60405161093991906141a9565b60405180910390f35b34801561094e57600080fd5b5061096960048036038101906109649190614642565b6124ed565b6040516109769190613f62565b60405180910390f35b34801561098b57600080fd5b506109a660048036038101906109a19190614238565b612581565b005b60006109b382612604565b9050919050565b600d54816109c66111e6565b6109d091906146b1565b1115610a11576040517f08c379a0000000000000000000000000000000000000000000000000000000008152600401610a0890614731565b60405180910390fd5b601760003373ffffffffffffffffffffffffffffffffffffffff1673ffffffffffffffffffffffffffffffffffffffff16815260200190815260200160002060009054906101000a900460ff16610a9d576040517f08c379a0000000000000000000000000000000000000000000000000000000008152600401610a949061479d565b60405180910390fd5b80600f54610aab91906147bd565b3414610aec576040517f08c379a0000000000000000000000000000000000000000000000000000000008152600401610ae39061484b565b60405180910390fd5b600381601660003373ffffffffffffffffffffffffffffffffffffffff1673ffffffffffffffffffffffffffffffffffffffff16815260200190815260200160002054610b3991906146b1565b1115610b7a576040517f08c379a0000000000000000000000000000000000000000000000000000000008152600401610b71906148b7565b60405180910390fd5b60005b81811015610d93576000610b91600c612665565b9050610b9d600c612673565b601660003373ffffffffffffffffffffffffffffffffffffffff1673ffffffffffffffffffffffffffffffffffffffff1681526020019081526020016000206000815480929190610bed906148d7565b9190505550610bfc3382612689565b610c04613e51565b8181600001818152505033816060019073ffffffffffffffffffffffffffffffffffffffff16908173ffffffffffffffffffffffffffffffffffffffff168152505060008160800190151590811515815250508060156000848152602001908152602001600020600082015181600001556020820151816001015560408201518160020160006101000a81548173ffffffffffffffffffffffffffffffffffffffff021916908373ffffffffffffffffffffffffffffffffffffffff16021790555060608201518160030160006101000a81548173ffffffffffffffffffffffffffffffffffffffff021916908373ffffffffffffffffffffffffffffffffffffffff16021790555060808201518160030160146101000a81548160ff0219169083151502179055509050503373ffffffffffffffffffffffffffffffffffffffff167f7a5477f3d257e8974dc6fb5c008b442d975968577dfad5d1283aa0a488bfab0b83604051610d7691906141a9565b60405180910390a250508080610d8b906148d7565b915050610b7d565b5050565b606060008054610da69061494e565b80601f0160208091040260200160405190810160405280929190818152602001828054610dd29061494e565b8015610e1f5780601f10610df457610100808354040283529160200191610e1f565b820191906000526020600020905b815481529060010190602001808311610e0257829003601f168201915b5050505050905090565b6000610e34826126a7565b6004600083815260200190815260200160002060009054906101000a900473ffffffffffffffffffffffffffffffffffffffff169050919050565b6000610e7a82611dad565b90508073ffffffffffffffffffffffffffffffffffffffff168373ffffffffffffffffffffffffffffffffffffffff1603610eea576040517f08c379a0000000000000000000000000000000000000000000000000000000008152600401610ee1906149f1565b60405180910390fd5b8073ffffffffffffffffffffffffffffffffffffffff16610f096126f2565b73ffffffffffffffffffffffffffffffffffffffff161480610f385750610f3781610f326126f2565b6124ed565b5b610f77576040517f08c379a0000000000000000000000000000000000000000000000000000000008152600401610f6e90614a83565b60405180910390fd5b610f8183836126fa565b505050565b601760003373ffffffffffffffffffffffffffffffffffffffff1673ffffffffffffffffffffffffffffffffffffffff16815260200190815260200160002060009054906101000a900460ff1615611013576040517f08c379a000000000000000000000000000000000000000000000000000000000815260040161100a90614aef565b60405180910390fd5b60105460125410611059576040517f08c379a000000000000000000000000000000000000000000000000000000000815260040161105090614b5b565b60405180910390fd5b6012600081548092919061106c906148d7565b91905055506001601760003373ffffffffffffffffffffffffffffffffffffffff1673ffffffffffffffffffffffffffffffffffffffff16815260200190815260200160002060006101000a81548160ff021916908315150217905550565b6015600083815260200190815260200160002060030160149054906101000a900460ff1661112e576040517f08c379a000000000000000000000000000000000000000000000000000000000815260040161112590614bc7565b60405180910390fd5b6000601480549050905060018261114591906147bd565b601560008581526020019081526020016000206001018190555060005b818110156111e057836014828154811061117f5761117e614be7565b5b906000526020600020906004020160000154036111cd576001836111a391906147bd565b601482815481106111b7576111b6614be7565b5b9060005260206000209060040201600101819055505b80806111d8906148d7565b915050611162565b50505050565b6000600880549050905090565b6014818154811061120357600080fd5b90600052602060002090600402016000915090508060000154908060010154908060020160009054906101000a900473ffffffffffffffffffffffffffffffffffffffff16908060030160009054906101000a900473ffffffffffffffffffffffffffffffffffffffff16908060030160149054906101000a900460ff16905085565b60156020528060005260406000206000915090508060000154908060010154908060020160009054906101000a900473ffffffffffffffffffffffffffffffffffffffff16908060030160009054906101000a900473ffffffffffffffffffffffffffffffffffffffff16908060030160149054906101000a900460ff16905085565b60166020528060005260406000206000915090505481565b61133261132c6126f2565b826127b3565b611371576040517f08c379a000000000000000000000000000000000000000000000000000000000815260040161136890614c88565b60405180910390fd5b61137c838383612848565b505050565b600d548161138d6111e6565b61139791906146b1565b11156113d8576040517f08c379a00000000000000000000000000000000000000000000000000000000081526004016113cf90614731565b60405180910390fd5b80600e546113e691906147bd565b3414611427576040517f08c379a000000000000000000000000000000000000000000000000000000000815260040161141e9061484b565b60405180910390fd5b600381601660003373ffffffffffffffffffffffffffffffffffffffff1673ffffffffffffffffffffffffffffffffffffffff1681526020019081526020016000205461147491906146b1565b11156114b5576040517f08c379a00000000000000000000000000000000000000000000000000000000081526004016114ac906148b7565b60405180910390fd5b60005b818110156116ce5760006114cc600c612665565b90506114d8600c612673565b601660003373ffffffffffffffffffffffffffffffffffffffff1673ffffffffffffffffffffffffffffffffffffffff1681526020019081526020016000206000815480929190611528906148d7565b91905055506115373382612689565b61153f613e51565b8181600001818152505033816060019073ffffffffffffffffffffffffffffffffffffffff16908173ffffffffffffffffffffffffffffffffffffffff168152505060008160800190151590811515815250508060156000848152602001908152602001600020600082015181600001556020820151816001015560408201518160020160006101000a81548173ffffffffffffffffffffffffffffffffffffffff021916908373ffffffffffffffffffffffffffffffffffffffff16021790555060608201518160030160006101000a81548173ffffffffffffffffffffffffffffffffffffffff021916908373ffffffffffffffffffffffffffffffffffffffff16021790555060808201518160030160146101000a81548160ff0219169083151502179055509050503373ffffffffffffffffffffffffffffffffffffffff167f7a5477f3d257e8974dc6fb5c008b442d975968577dfad5d1283aa0a488bfab0b836040516116b191906141a9565b60405180910390a2505080806116c6906148d7565b9150506114b8565b5050565b60006116dd83611edf565b821061171e576040517f08c379a000000000000000000000000000000000000000000000000000000000815260040161171590614d1a565b60405180910390fd5b600660008473ffffffffffffffffffffffffffffffffffffffff1673ffffffffffffffffffffffffffffffffffffffff168152602001908152602001600020600083815260200190815260200160002054905092915050565b600d5481565b611785612b41565b61178d612bbf565b565b6117aa8383836040518060200160405280600081525061234e565b505050565b60006117b96111e6565b82106117fa576040517f08c379a00000000000000000000000000000000000000000000000000000000081526004016117f190614dac565b60405180910390fd5b6008828154811061180e5761180d614be7565b5b90600052602060002001549050919050565b6014818154811061183457611833614be7565b5b906000526020600020906004020160030160149054906101000a900460ff16611892576040517f08c379a000000000000000000000000000000000000000000000000000000000815260040161188990614731565b60405180910390fd5b601481815481106118a6576118a5614be7565b5b90600052602060002090600402016001015434146118f9576040517f08c379a00000000000000000000000000000000000000000000000000000000081526004016118f090614e18565b60405180910390fd5b60006014828154811061190f5761190e614be7565b5b906000526020600020906004020160000154905060006014838154811061193957611938614be7565b5b906000526020600020906004020160030160009054906101000a900473ffffffffffffffffffffffffffffffffffffffff16905060006015600084815260200190815260200160002060030160146101000a81548160ff0219169083151502179055506000601484815481106119b2576119b1614be7565b5b906000526020600020906004020160030160146101000a81548160ff021916908315150217905550336015600084815260200190815260200160002060030160006101000a81548173ffffffffffffffffffffffffffffffffffffffff021916908373ffffffffffffffffffffffffffffffffffffffff1602179055503360148481548110611a4457611a43614be7565b5b906000526020600020906004020160030160006101000a81548173ffffffffffffffffffffffffffffffffffffffff021916908373ffffffffffffffffffffffffffffffffffffffff1602179055503073ffffffffffffffffffffffffffffffffffffffff166342842e0e8233856040518463ffffffff1660e01b8152600401611ad093929190614e38565b600060405180830381600087803b158015611aea57600080fd5b505af1158015611afe573d6000803e3d6000fd5b505050508073ffffffffffffffffffffffffffffffffffffffff166108fc349081150290604051600060405180830381858888f19350505050158015611b48573d6000803e3d6000fd5b508073ffffffffffffffffffffffffffffffffffffffff16827fdc0971a41bd3cc3dec88e610438b1a9f0752975bbd80f195baf7b766c0aec03e60405160405180910390a3505050565b6000600b60009054906101000a900460ff16905090565b60606000611bb7600c612665565b90506000600367ffffffffffffffff811115611bd657611bd5614494565b5b604051908082528060200260200182016040528015611c0f57816020015b611bfc613e51565b815260200190600190039081611bf45790505b50905060005b828111611da45760006015600083815260200190815260200160002090503373ffffffffffffffffffffffffffffffffffffffff168160030160009054906101000a900473ffffffffffffffffffffffffffffffffffffffff1673ffffffffffffffffffffffffffffffffffffffff1603611d9057806040518060a001604052908160008201548152602001600182015481526020016002820160009054906101000a900473ffffffffffffffffffffffffffffffffffffffff1673ffffffffffffffffffffffffffffffffffffffff1673ffffffffffffffffffffffffffffffffffffffff1681526020016003820160009054906101000a900473ffffffffffffffffffffffffffffffffffffffff1673ffffffffffffffffffffffffffffffffffffffff1673ffffffffffffffffffffffffffffffffffffffff1681526020016003820160149054906101000a900460ff161515151581525050838381518110611d8457611d83614be7565b5b60200260200101819052505b508080611d9c906148d7565b915050611c15565b50809250505090565b600080611db983612c22565b9050600073ffffffffffffffffffffffffffffffffffffffff168173ffffffffffffffffffffffffffffffffffffffff1603611e2a576040517f08c379a0000000000000000000000000000000000000000000000000000000008152600401611e2190614ebb565b60405180910390fd5b80915050919050565b611e3b612b41565b60004790508173ffffffffffffffffffffffffffffffffffffffff166108fc829081150290604051600060405180830381858888f19350505050158015611e86573d6000803e3d6000fd5b508173ffffffffffffffffffffffffffffffffffffffff167f884edad9ce6fa2440d8a54cc123490eb96d2768479d49ff9c7366125a942436482604051611ecd91906141a9565b60405180910390a25050565b600e5481565b60008073ffffffffffffffffffffffffffffffffffffffff168273ffffffffffffffffffffffffffffffffffffffff1603611f4f576040517f08c379a0000000000000000000000000000000000000000000000000000000008152600401611f4690614f4d565b60405180910390fd5b600360008373ffffffffffffffffffffffffffffffffffffffff1673ffffffffffffffffffffffffffffffffffffffff168152602001908152602001600020549050919050565b611f9e612b41565b611fa86000612c5f565b565b60115481565b611fb8612b41565b611fc0612d25565b565b6000600b60019054906101000a900473ffffffffffffffffffffffffffffffffffffffff16905090565b6015600083815260200190815260200160002060030160149054906101000a900460ff1615612050576040517f08c379a000000000000000000000000000000000000000000000000000000000815260040161204790614fb9565b60405180910390fd5b6011543414612094576040517f08c379a000000000000000000000000000000000000000000000000000000000815260040161208b90615025565b60405180910390fd5b60006015600084815260200190815260200160002090506001826120b891906147bd565b8160010181905550308160020160006101000a81548173ffffffffffffffffffffffffffffffffffffffff021916908373ffffffffffffffffffffffffffffffffffffffff16021790555060018160030160146101000a81548160ff021916908315150217905550601481908060018154018082558091505060019003906000526020600020906004020160009091909190915060008201548160000155600182015481600101556002820160009054906101000a900473ffffffffffffffffffffffffffffffffffffffff168160020160006101000a81548173ffffffffffffffffffffffffffffffffffffffff021916908373ffffffffffffffffffffffffffffffffffffffff1602179055506003820160009054906101000a900473ffffffffffffffffffffffffffffffffffffffff168160030160006101000a81548173ffffffffffffffffffffffffffffffffffffffff021916908373ffffffffffffffffffffffffffffffffffffffff1602179055506003820160149054906101000a900460ff168160030160146101000a81548160ff02191690831515021790555050506122673084610e6f565b81837f1ea45e30b31292f9d7c5d37d275b2feca555f13f47dce0fdea2f47e8852ecd7860405160405180910390a3505050565b6060600180546122a99061494e565b80601f01602080910402602001604051908101604052809291908181526020018280546122d59061494e565b80156123225780601f106122f757610100808354040283529160200191612322565b820191906000526020600020905b81548152906001019060200180831161230557829003601f168201915b5050505050905090565b61233e6123376126f2565b8383612d88565b5050565b600f5481565b60105481565b61235f6123596126f2565b836127b3565b61239e576040517f08c379a000000000000000000000000000000000000000000000000000000000815260040161239590614c88565b60405180910390fd5b6123aa84848484612ef4565b50505050565b601380546123bd9061494e565b80601f01602080910402602001604051908101604052809291908181526020018280546123e99061494e565b80156124365780601f1061240b57610100808354040283529160200191612436565b820191906000526020600020905b81548152906001019060200180831161241957829003601f168201915b505050505081565b6060612449826126a7565b6000612453612f50565b905060008361138861246591906146b1565b90506000825111156124a7578161247b82612f70565b601360405160200161248f93929190615119565b604051602081830303815290604052925050506124b5565b6124b08461303e565b925050505b919050565b6000601480549050905090565b60176020528060005260406000206000915054906101000a900460ff1681565b60125481565b6000600560008473ffffffffffffffffffffffffffffffffffffffff1673ffffffffffffffffffffffffffffffffffffffff16815260200190815260200160002060008373ffffffffffffffffffffffffffffffffffffffff1673ffffffffffffffffffffffffffffffffffffffff16815260200190815260200160002060009054906101000a900460ff16905092915050565b612589612b41565b600073ffffffffffffffffffffffffffffffffffffffff168173ffffffffffffffffffffffffffffffffffffffff16036125f8576040517f08c379a00000000000000000000000000000000000000000000000000000000081526004016125ef906151bc565b60405180910390fd5b61260181612c5f565b50565b6000634906490660e01b7bffffffffffffffffffffffffffffffffffffffffffffffffffffffff1916827bffffffffffffffffffffffffffffffffffffffffffffffffffffffff1916148061265e575061265d82613150565b5b9050919050565b600081600001549050919050565b6001816000016000828254019250508190555050565b6126a38282604051806020016040528060008152506131ca565b5050565b6126b081613225565b6126ef576040517f08c379a00000000000000000000000000000000000000000000000000000000081526004016126e690614ebb565b60405180910390fd5b50565b600033905090565b816004600083815260200190815260200160002060006101000a81548173ffffffffffffffffffffffffffffffffffffffff021916908373ffffffffffffffffffffffffffffffffffffffff160217905550808273ffffffffffffffffffffffffffffffffffffffff1661276d83611dad565b73ffffffffffffffffffffffffffffffffffffffff167f8c5be1e5ebec7d5bd14f71427d1e84f3dd0314c0f7b2291e5b200ac8c7c3b92560405160405180910390a45050565b6000806127bf83611dad565b90508073ffffffffffffffffffffffffffffffffffffffff168473ffffffffffffffffffffffffffffffffffffffff161480612801575061280081856124ed565b5b8061283f57508373ffffffffffffffffffffffffffffffffffffffff1661282784610e29565b73ffffffffffffffffffffffffffffffffffffffff16145b91505092915050565b8273ffffffffffffffffffffffffffffffffffffffff1661286882611dad565b73ffffffffffffffffffffffffffffffffffffffff16146128be576040517f08c379a00000000000000000000000000000000000000000000000000000000081526004016128b59061524e565b60405180910390fd5b600073ffffffffffffffffffffffffffffffffffffffff168273ffffffffffffffffffffffffffffffffffffffff160361292d576040517f08c379a0000000000000000000000000000000000000000000000000000000008152600401612924906152e0565b60405180910390fd5b61293a8383836001613266565b8273ffffffffffffffffffffffffffffffffffffffff1661295a82611dad565b73ffffffffffffffffffffffffffffffffffffffff16146129b0576040517f08c379a00000000000000000000000000000000000000000000000000000000081526004016129a79061524e565b60405180910390fd5b6004600082815260200190815260200160002060006101000a81549073ffffffffffffffffffffffffffffffffffffffff02191690556001600360008573ffffffffffffffffffffffffffffffffffffffff1673ffffffffffffffffffffffffffffffffffffffff168152602001908152602001600020600082825403925050819055506001600360008473ffffffffffffffffffffffffffffffffffffffff1673ffffffffffffffffffffffffffffffffffffffff16815260200190815260200160002060008282540192505081905550816002600083815260200190815260200160002060006101000a81548173ffffffffffffffffffffffffffffffffffffffff021916908373ffffffffffffffffffffffffffffffffffffffff160217905550808273ffffffffffffffffffffffffffffffffffffffff168473ffffffffffffffffffffffffffffffffffffffff167fddf252ad1be2c89b69c2b068fc378daa952ba7f163c4a11628f55a4df523b3ef60405160405180910390a4612b3c8383836001613280565b505050565b612b496126f2565b73ffffffffffffffffffffffffffffffffffffffff16612b67611fc2565b73ffffffffffffffffffffffffffffffffffffffff1614612bbd576040517f08c379a0000000000000000000000000000000000000000000000000000000008152600401612bb49061534c565b60405180910390fd5b565b612bc7613286565b6000600b60006101000a81548160ff0219169083151502179055507f5db9ee0a495bf2e6ff9c91a7834c1ba4fdd244a5e8aa4e537bd38aeae4b073aa612c0b6126f2565b604051612c1891906140d3565b60405180910390a1565b60006002600083815260200190815260200160002060009054906101000a900473ffffffffffffffffffffffffffffffffffffffff169050919050565b6000600b60019054906101000a900473ffffffffffffffffffffffffffffffffffffffff16905081600b60016101000a81548173ffffffffffffffffffffffffffffffffffffffff021916908373ffffffffffffffffffffffffffffffffffffffff1602179055508173ffffffffffffffffffffffffffffffffffffffff168173ffffffffffffffffffffffffffffffffffffffff167f8be0079c531659141344cd1fd0a4f28419497f9722a3daafe3b4186f6b6457e060405160405180910390a35050565b612d2d6132cf565b6001600b60006101000a81548160ff0219169083151502179055507f62e78cea01bee320cd4e420270b5ea74000d11b0c9f74754ebdbfc544b05a258612d716126f2565b604051612d7e91906140d3565b60405180910390a1565b8173ffffffffffffffffffffffffffffffffffffffff168373ffffffffffffffffffffffffffffffffffffffff1603612df6576040517f08c379a0000000000000000000000000000000000000000000000000000000008152600401612ded906153b8565b60405180910390fd5b80600560008573ffffffffffffffffffffffffffffffffffffffff1673ffffffffffffffffffffffffffffffffffffffff16815260200190815260200160002060008473ffffffffffffffffffffffffffffffffffffffff1673ffffffffffffffffffffffffffffffffffffffff16815260200190815260200160002060006101000a81548160ff0219169083151502179055508173ffffffffffffffffffffffffffffffffffffffff168373ffffffffffffffffffffffffffffffffffffffff167f17307eab39ab6107e8899845ad3d59bd9653f200f220920489ca2b5937696c3183604051612ee79190613f62565b60405180910390a3505050565b612eff848484612848565b612f0b84848484613319565b612f4a576040517f08c379a0000000000000000000000000000000000000000000000000000000008152600401612f419061544a565b60405180910390fd5b50505050565b606060405180608001604052806044815260200161584660449139905090565b606060006001612f7f846134a0565b01905060008167ffffffffffffffff811115612f9e57612f9d614494565b5b6040519080825280601f01601f191660200182016040528015612fd05781602001600182028036833780820191505090505b509050600082602001820190505b600115613033578080600190039150507f3031323334353637383961626364656600000000000000000000000000000000600a86061a8153600a85816130275761302661546a565b5b04945060008503612fde575b819350505050919050565b6060613049826126a7565b6000600a600084815260200190815260200160002080546130699061494e565b80601f01602080910402602001604051908101604052809291908181526020018280546130959061494e565b80156130e25780601f106130b7576101008083540402835291602001916130e2565b820191906000526020600020905b8154815290600101906020018083116130c557829003601f168201915b5050505050905060006130f3612f50565b9050600081510361310857819250505061314b565b60008251111561313d578082604051602001613125929190615499565b6040516020818303038152906040529250505061314b565b613146846135f3565b925050505b919050565b60007f780e9d63000000000000000000000000000000000000000000000000000000007bffffffffffffffffffffffffffffffffffffffffffffffffffffffff1916827bffffffffffffffffffffffffffffffffffffffffffffffffffffffff191614806131c357506131c28261365b565b5b9050919050565b6131d4838361373d565b6131e16000848484613319565b613220576040517f08c379a00000000000000000000000000000000000000000000000000000000081526004016132179061544a565b60405180910390fd5b505050565b60008073ffffffffffffffffffffffffffffffffffffffff1661324783612c22565b73ffffffffffffffffffffffffffffffffffffffff1614159050919050565b61326e6132cf565b61327a8484848461395a565b50505050565b50505050565b61328e611b92565b6132cd576040517f08c379a00000000000000000000000000000000000000000000000000000000081526004016132c490615509565b60405180910390fd5b565b6132d7611b92565b15613317576040517f08c379a000000000000000000000000000000000000000000000000000000000815260040161330e90615575565b60405180910390fd5b565b600061333a8473ffffffffffffffffffffffffffffffffffffffff16613ab8565b15613493578373ffffffffffffffffffffffffffffffffffffffff1663150b7a026133636126f2565b8786866040518563ffffffff1660e01b815260040161338594939291906155ea565b6020604051808303816000875af19250505080156133c157506040513d601f19601f820116820180604052508101906133be919061564b565b60015b613443573d80600081146133f1576040519150601f19603f3d011682016040523d82523d6000602084013e6133f6565b606091505b50600081510361343b576040517f08c379a00000000000000000000000000000000000000000000000000000000081526004016134329061544a565b60405180910390fd5b805181602001fd5b63150b7a0260e01b7bffffffffffffffffffffffffffffffffffffffffffffffffffffffff1916817bffffffffffffffffffffffffffffffffffffffffffffffffffffffff191614915050613498565b600190505b949350505050565b600080600090507a184f03e93ff9f4daa797ed6e38ed64bf6a1f01000000000000000083106134fe577a184f03e93ff9f4daa797ed6e38ed64bf6a1f01000000000000000083816134f4576134f361546a565b5b0492506040810190505b6d04ee2d6d415b85acef8100000000831061353b576d04ee2d6d415b85acef810000000083816135315761353061546a565b5b0492506020810190505b662386f26fc10000831061356a57662386f26fc1000083816135605761355f61546a565b5b0492506010810190505b6305f5e1008310613593576305f5e10083816135895761358861546a565b5b0492506008810190505b61271083106135b85761271083816135ae576135ad61546a565b5b0492506004810190505b606483106135db57606483816135d1576135d061546a565b5b0492506002810190505b600a83106135ea576001810190505b80915050919050565b60606135fe826126a7565b6000613608612f50565b905060008151116136285760405180602001604052806000815250613653565b8061363284612f70565b604051602001613643929190615499565b6040516020818303038152906040525b915050919050565b60007f80ac58cd000000000000000000000000000000000000000000000000000000007bffffffffffffffffffffffffffffffffffffffffffffffffffffffff1916827bffffffffffffffffffffffffffffffffffffffffffffffffffffffff1916148061372657507f5b5e139f000000000000000000000000000000000000000000000000000000007bffffffffffffffffffffffffffffffffffffffffffffffffffffffff1916827bffffffffffffffffffffffffffffffffffffffffffffffffffffffff1916145b80613736575061373582613adb565b5b9050919050565b600073ffffffffffffffffffffffffffffffffffffffff168273ffffffffffffffffffffffffffffffffffffffff16036137ac576040517f08c379a00000000000000000000000000000000000000000000000000000000081526004016137a3906156c4565b60405180910390fd5b6137b581613225565b156137f5576040517f08c379a00000000000000000000000000000000000000000000000000000000081526004016137ec90615730565b60405180910390fd5b613803600083836001613266565b61380c81613225565b1561384c576040517f08c379a000000000000000000000000000000000000000000000000000000000815260040161384390615730565b60405180910390fd5b6001600360008473ffffffffffffffffffffffffffffffffffffffff1673ffffffffffffffffffffffffffffffffffffffff16815260200190815260200160002060008282540192505081905550816002600083815260200190815260200160002060006101000a81548173ffffffffffffffffffffffffffffffffffffffff021916908373ffffffffffffffffffffffffffffffffffffffff160217905550808273ffffffffffffffffffffffffffffffffffffffff16600073ffffffffffffffffffffffffffffffffffffffff167fddf252ad1be2c89b69c2b068fc378daa952ba7f163c4a11628f55a4df523b3ef60405160405180910390a4613956600083836001613280565b5050565b61396684848484613b45565b60018111156139aa576040517f08c379a00000000000000000000000000000000000000000000000000000000081526004016139a1906157c2565b60405180910390fd5b6000829050600073ffffffffffffffffffffffffffffffffffffffff168573ffffffffffffffffffffffffffffffffffffffff16036139f1576139ec81613b4b565b613a30565b8373ffffffffffffffffffffffffffffffffffffffff168573ffffffffffffffffffffffffffffffffffffffff1614613a2f57613a2e8582613b94565b5b5b600073ffffffffffffffffffffffffffffffffffffffff168473ffffffffffffffffffffffffffffffffffffffff1603613a7257613a6d81613d01565b613ab1565b8473ffffffffffffffffffffffffffffffffffffffff168473ffffffffffffffffffffffffffffffffffffffff1614613ab057613aaf8482613dd2565b5b5b5050505050565b6000808273ffffffffffffffffffffffffffffffffffffffff163b119050919050565b60007f01ffc9a7000000000000000000000000000000000000000000000000000000007bffffffffffffffffffffffffffffffffffffffffffffffffffffffff1916827bffffffffffffffffffffffffffffffffffffffffffffffffffffffff1916149050919050565b50505050565b6008805490506009600083815260200190815260200160002081905550600881908060018154018082558091505060019003906000526020600020016000909190919091505550565b60006001613ba184611edf565b613bab91906157e2565b9050600060076000848152602001908152602001600020549050818114613c90576000600660008673ffffffffffffffffffffffffffffffffffffffff1673ffffffffffffffffffffffffffffffffffffffff168152602001908152602001600020600084815260200190815260200160002054905080600660008773ffffffffffffffffffffffffffffffffffffffff1673ffffffffffffffffffffffffffffffffffffffff168152602001908152602001600020600084815260200190815260200160002081905550816007600083815260200190815260200160002081905550505b6007600084815260200190815260200160002060009055600660008573ffffffffffffffffffffffffffffffffffffffff1673ffffffffffffffffffffffffffffffffffffffff16815260200190815260200160002060008381526020019081526020016000206000905550505050565b60006001600880549050613d1591906157e2565b9050600060096000848152602001908152602001600020549050600060088381548110613d4557613d44614be7565b5b906000526020600020015490508060088381548110613d6757613d66614be7565b5b906000526020600020018190555081600960008381526020019081526020016000208190555060096000858152602001908152602001600020600090556008805480613db657613db5615816565b5b6001900381819060005260206000200160009055905550505050565b6000613ddd83611edf565b905081600660008573ffffffffffffffffffffffffffffffffffffffff1673ffffffffffffffffffffffffffffffffffffffff168152602001908152602001600020600083815260200190815260200160002081905550806007600084815260200190815260200160002081905550505050565b6040518060a001604052806000815260200160008152602001600073ffffffffffffffffffffffffffffffffffffffff168152602001600073ffffffffffffffffffffffffffffffffffffffff1681526020016000151581525090565b6000604051905090565b600080fd5b600080fd5b60007fffffffff0000000000000000000000000000000000000000000000000000000082169050919050565b613ef781613ec2565b8114613f0257600080fd5b50565b600081359050613f1481613eee565b92915050565b600060208284031215613f3057613f2f613eb8565b5b6000613f3e84828501613f05565b91505092915050565b60008115159050919050565b613f5c81613f47565b82525050565b6000602082019050613f776000830184613f53565b92915050565b6000819050919050565b613f9081613f7d565b8114613f9b57600080fd5b50565b600081359050613fad81613f87565b92915050565b600060208284031215613fc957613fc8613eb8565b5b6000613fd784828501613f9e565b91505092915050565b600081519050919050565b600082825260208201905092915050565b60005b8381101561401a578082015181840152602081019050613fff565b60008484015250505050565b6000601f19601f8301169050919050565b600061404282613fe0565b61404c8185613feb565b935061405c818560208601613ffc565b61406581614026565b840191505092915050565b6000602082019050818103600083015261408a8184614037565b905092915050565b600073ffffffffffffffffffffffffffffffffffffffff82169050919050565b60006140bd82614092565b9050919050565b6140cd816140b2565b82525050565b60006020820190506140e860008301846140c4565b92915050565b6140f7816140b2565b811461410257600080fd5b50565b600081359050614114816140ee565b92915050565b6000806040838503121561413157614130613eb8565b5b600061413f85828601614105565b925050602061415085828601613f9e565b9150509250929050565b6000806040838503121561417157614170613eb8565b5b600061417f85828601613f9e565b925050602061419085828601613f9e565b9150509250929050565b6141a381613f7d565b82525050565b60006020820190506141be600083018461419a565b92915050565b60006141cf82614092565b9050919050565b6141df816141c4565b82525050565b600060a0820190506141fa600083018861419a565b614207602083018761419a565b61421460408301866141d6565b61422160608301856141d6565b61422e6080830184613f53565b9695505050505050565b60006020828403121561424e5761424d613eb8565b5b600061425c84828501614105565b91505092915050565b60008060006060848603121561427e5761427d613eb8565b5b600061428c86828701614105565b935050602061429d86828701614105565b92505060406142ae86828701613f9e565b9150509250925092565b600081519050919050565b600082825260208201905092915050565b6000819050602082019050919050565b6142ed81613f7d565b82525050565b6142fc816141c4565b82525050565b61430b81613f47565b82525050565b60a08201600082015161432760008501826142e4565b50602082015161433a60208501826142e4565b50604082015161434d60408501826142f3565b50606082015161436060608501826142f3565b5060808201516143736080850182614302565b50505050565b60006143858383614311565b60a08301905092915050565b6000602082019050919050565b60006143a9826142b8565b6143b381856142c3565b93506143be836142d4565b8060005b838110156143ef5781516143d68882614379565b97506143e183614391565b9250506001810190506143c2565b5085935050505092915050565b60006020820190508181036000830152614416818461439e565b905092915050565b61442781613f47565b811461443257600080fd5b50565b6000813590506144448161441e565b92915050565b6000806040838503121561446157614460613eb8565b5b600061446f85828601614105565b925050602061448085828601614435565b9150509250929050565b600080fd5b600080fd5b7f4e487b7100000000000000000000000000000000000000000000000000000000600052604160045260246000fd5b6144cc82614026565b810181811067ffffffffffffffff821117156144eb576144ea614494565b5b80604052505050565b60006144fe613eae565b905061450a82826144c3565b919050565b600067ffffffffffffffff82111561452a57614529614494565b5b61453382614026565b9050602081019050919050565b82818337600083830152505050565b600061456261455d8461450f565b6144f4565b90508281526020810184848401111561457e5761457d61448f565b5b614589848285614540565b509392505050565b600082601f8301126145a6576145a561448a565b5b81356145b684826020860161454f565b91505092915050565b600080600080608085870312156145d9576145d8613eb8565b5b60006145e787828801614105565b94505060206145f887828801614105565b935050604061460987828801613f9e565b925050606085013567ffffffffffffffff81111561462a57614629613ebd565b5b61463687828801614591565b91505092959194509250565b6000806040838503121561465957614658613eb8565b5b600061466785828601614105565b925050602061467885828601614105565b9150509250929050565b7f4e487b7100000000000000000000000000000000000000000000000000000000600052601160045260246000fd5b60006146bc82613f7d565b91506146c783613f7d565b92508282019050808211156146df576146de614682565b5b92915050565b7f536f6c64206f7574210000000000000000000000000000000000000000000000600082015250565b600061471b600983613feb565b9150614726826146e5565b602082019050919050565b6000602082019050818103600083015261474a8161470e565b9050919050565b7f596f7520617265206e6f7420696e207468652077686974656c69737421000000600082015250565b6000614787601d83613feb565b915061479282614751565b602082019050919050565b600060208201905081810360008301526147b68161477a565b9050919050565b60006147c882613f7d565b91506147d383613f7d565b92508282026147e181613f7d565b915082820484148315176147f8576147f7614682565b5b5092915050565b7f506c65617365207061792074686520657861637420616d6f756e742100000000600082015250565b6000614835601c83613feb565b9150614840826147ff565b602082019050919050565b6000602082019050818103600083015261486481614828565b9050919050565b7f4d6178207065722077616c6c6574207265616368656421000000000000000000600082015250565b60006148a1601783613feb565b91506148ac8261486b565b602082019050919050565b600060208201905081810360008301526148d081614894565b9050919050565b60006148e282613f7d565b91507fffffffffffffffffffffffffffffffffffffffffffffffffffffffffffffffff820361491457614913614682565b5b600182019050919050565b7f4e487b7100000000000000000000000000000000000000000000000000000000600052602260045260246000fd5b6000600282049050600182168061496657607f821691505b6020821081036149795761497861491f565b5b50919050565b7f4552433732313a20617070726f76616c20746f2063757272656e74206f776e6560008201527f7200000000000000000000000000000000000000000000000000000000000000602082015250565b60006149db602183613feb565b91506149e68261497f565b604082019050919050565b60006020820190508181036000830152614a0a816149ce565b9050919050565b7f4552433732313a20617070726f76652063616c6c6572206973206e6f7420746f60008201527f6b656e206f776e6572206f7220617070726f76656420666f7220616c6c000000602082015250565b6000614a6d603d83613feb565b9150614a7882614a11565b604082019050919050565b60006020820190508181036000830152614a9c81614a60565b9050919050565b7f416c726561647920616464656400000000000000000000000000000000000000600082015250565b6000614ad9600d83613feb565b9150614ae482614aa3565b602082019050919050565b60006020820190508181036000830152614b0881614acc565b9050919050565b7f4d6178206f757400000000000000000000000000000000000000000000000000600082015250565b6000614b45600783613feb565b9150614b5082614b0f565b602082019050919050565b60006020820190508181036000830152614b7481614b38565b9050919050565b7f4e6f74204c697374656400000000000000000000000000000000000000000000600082015250565b6000614bb1600a83613feb565b9150614bbc82614b7b565b602082019050919050565b60006020820190508181036000830152614be081614ba4565b9050919050565b7f4e487b7100000000000000000000000000000000000000000000000000000000600052603260045260246000fd5b7f4552433732313a2063616c6c6572206973206e6f7420746f6b656e206f776e6560008201527f72206f7220617070726f76656400000000000000000000000000000000000000602082015250565b6000614c72602d83613feb565b9150614c7d82614c16565b604082019050919050565b60006020820190508181036000830152614ca181614c65565b9050919050565b7f455243373231456e756d657261626c653a206f776e657220696e646578206f7560008201527f74206f6620626f756e6473000000000000000000000000000000000000000000602082015250565b6000614d04602b83613feb565b9150614d0f82614ca8565b604082019050919050565b60006020820190508181036000830152614d3381614cf7565b9050919050565b7f455243373231456e756d657261626c653a20676c6f62616c20696e646578206f60008201527f7574206f6620626f756e64730000000000000000000000000000000000000000602082015250565b6000614d96602c83613feb565b9150614da182614d3a565b604082019050919050565b60006020820190508181036000830152614dc581614d89565b9050919050565b7f5061792074686520657861637420616d6f756e74210000000000000000000000600082015250565b6000614e02601583613feb565b9150614e0d82614dcc565b602082019050919050565b60006020820190508181036000830152614e3181614df5565b9050919050565b6000606082019050614e4d60008301866140c4565b614e5a60208301856140c4565b614e67604083018461419a565b949350505050565b7f4552433732313a20696e76616c696420746f6b656e2049440000000000000000600082015250565b6000614ea5601883613feb565b9150614eb082614e6f565b602082019050919050565b60006020820190508181036000830152614ed481614e98565b9050919050565b7f4552433732313a2061646472657373207a65726f206973206e6f74206120766160008201527f6c6964206f776e65720000000000000000000000000000000000000000000000602082015250565b6000614f37602983613feb565b9150614f4282614edb565b604082019050919050565b60006020820190508181036000830152614f6681614f2a565b9050919050565b7f416c7265616479206c6973746564210000000000000000000000000000000000600082015250565b6000614fa3600f83613feb565b9150614fae82614f6d565b602082019050919050565b60006020820190508181036000830152614fd281614f96565b9050919050565b7f5061792074686520657861637420707269636521000000000000000000000000600082015250565b600061500f601483613feb565b915061501a82614fd9565b602082019050919050565b6000602082019050818103600083015261503e81615002565b9050919050565b600081905092915050565b600061505b82613fe0565b6150658185615045565b9350615075818560208601613ffc565b80840191505092915050565b60008190508160005260206000209050919050565b600081546150a38161494e565b6150ad8186615045565b945060018216600081146150c857600181146150dd57615110565b60ff1983168652811515820286019350615110565b6150e685615081565b60005b83811015615108578154818901526001820191506020810190506150e9565b838801955050505b50505092915050565b60006151258286615050565b91506151318285615050565b915061513d8284615096565b9150819050949350505050565b7f4f776e61626c653a206e6577206f776e657220697320746865207a65726f206160008201527f6464726573730000000000000000000000000000000000000000000000000000602082015250565b60006151a6602683613feb565b91506151b18261514a565b604082019050919050565b600060208201905081810360008301526151d581615199565b9050919050565b7f4552433732313a207472616e736665722066726f6d20696e636f72726563742060008201527f6f776e6572000000000000000000000000000000000000000000000000000000602082015250565b6000615238602583613feb565b9150615243826151dc565b604082019050919050565b600060208201905081810360008301526152678161522b565b9050919050565b7f4552433732313a207472616e7366657220746f20746865207a65726f2061646460008201527f7265737300000000000000000000000000000000000000000000000000000000602082015250565b60006152ca602483613feb565b91506152d58261526e565b604082019050919050565b600060208201905081810360008301526152f9816152bd565b9050919050565b7f4f776e61626c653a2063616c6c6572206973206e6f7420746865206f776e6572600082015250565b6000615336602083613feb565b915061534182615300565b602082019050919050565b6000602082019050818103600083015261536581615329565b9050919050565b7f4552433732313a20617070726f766520746f2063616c6c657200000000000000600082015250565b60006153a2601983613feb565b91506153ad8261536c565b602082019050919050565b600060208201905081810360008301526153d181615395565b9050919050565b7f4552433732313a207472616e7366657220746f206e6f6e20455243373231526560008201527f63656976657220696d706c656d656e7465720000000000000000000000000000602082015250565b6000615434603283613feb565b915061543f826153d8565b604082019050919050565b6000602082019050818103600083015261546381615427565b9050919050565b7f4e487b7100000000000000000000000000000000000000000000000000000000600052601260045260246000fd5b60006154a58285615050565b91506154b18284615050565b91508190509392505050565b7f5061757361626c653a206e6f7420706175736564000000000000000000000000600082015250565b60006154f3601483613feb565b91506154fe826154bd565b602082019050919050565b60006020820190508181036000830152615522816154e6565b9050919050565b7f5061757361626c653a2070617573656400000000000000000000000000000000600082015250565b600061555f601083613feb565b915061556a82615529565b602082019050919050565b6000602082019050818103600083015261558e81615552565b9050919050565b600081519050919050565b600082825260208201905092915050565b60006155bc82615595565b6155c681856155a0565b93506155d6818560208601613ffc565b6155df81614026565b840191505092915050565b60006080820190506155ff60008301876140c4565b61560c60208301866140c4565b615619604083018561419a565b818103606083015261562b81846155b1565b905095945050505050565b60008151905061564581613eee565b92915050565b60006020828403121561566157615660613eb8565b5b600061566f84828501615636565b91505092915050565b7f4552433732313a206d696e7420746f20746865207a65726f2061646472657373600082015250565b60006156ae602083613feb565b91506156b982615678565b602082019050919050565b600060208201905081810360008301526156dd816156a1565b9050919050565b7f4552433732313a20746f6b656e20616c7265616479206d696e74656400000000600082015250565b600061571a601c83613feb565b9150615725826156e4565b602082019050919050565b600060208201905081810360008301526157498161570d565b9050919050565b7f455243373231456e756d657261626c653a20636f6e736563757469766520747260008201527f616e7366657273206e6f7420737570706f727465640000000000000000000000602082015250565b60006157ac603583613feb565b91506157b782615750565b604082019050919050565b600060208201905081810360008301526157db8161579f565b9050919050565b60006157ed82613f7d565b91506157f883613f7d565b92508282039050818111156158105761580f614682565b5b92915050565b7f4e487b7100000000000000000000000000000000000000000000000000000000600052603160045260246000fdfe68747470733a2f2f697066732e696f2f697066732f516d58587a5253775350733444484c53375244505279473147696e6a4756467632665335546458336657333346582fa2646970667358221220a0b8bd1d8e357967726a1c61bc07c7ad43e318037c4036f73020a0ce8ea0214164736f6c63430008120033",
  "linkReferences": {},
  "deployedLinkReferences": {}
}